{
    "_format": "hh-sol-artifact-1",
    "contractName": "HelloChain",
    "sourceName": "contracts/HelloChain.sol",
    "abi": [
        {
            "anonymous": false,
            "inputs": [
                {
                    "indexed": true,
                    "internalType": "address",
                    "name": "from",
                    "type": "address"
                },
                {
                    "indexed": false,
                    "internalType": "uint256",
                    "name": "timestamp",
                    "type": "uint256"
                },
                {
                    "indexed": false,
                    "internalType": "string",
                    "name": "message",
                    "type": "string"
                }
            ],
            "name": "newHello",
            "type": "event"
        },
        {
            "inputs": [],
            "name": "getAllHello",
            "outputs": [
                {
                    "components": [
                        {
                            "internalType": "address",
                            "name": "user",
                            "type": "address"
                        },
                        {
                            "internalType": "string",
                            "name": "message",
                            "type": "string"
                        },
                        {
                            "internalType": "uint256",
                            "name": "timestamp",
                            "type": "uint256"
                        }
                    ],
                    "internalType": "struct HelloChain.Hello[]",
                    "name": "",
                    "type": "tuple[]"
                }
            ],
            "stateMutability": "view",
            "type": "function"
        },
        {
            "inputs": [
                {
                    "internalType": "string",
                    "name": "_message",
                    "type": "string"
                }
            ],
            "name": "hello",
            "outputs": [],
            "stateMutability": "nonpayable",
            "type": "function"
        },
        {
            "inputs": [],
            "name": "initialize",
            "outputs": [],
            "stateMutability": "view",
            "type": "function"
        },
        {
            "inputs": [
                {
                    "internalType": "address",
                    "name": "",
                    "type": "address"
                }
            ],
            "name": "lastHelloAt",
            "outputs": [
                {
                    "internalType": "uint256",
                    "name": "",
                    "type": "uint256"
                }
            ],
            "stateMutability": "view",
            "type": "function"
        }
    ],
    "bytecode": "0x608060405234801561001057600080fd5b50610c4e806100206000396000f3fe608060405234801561001057600080fd5b506004361061004c5760003560e01c8063379b368e146100515780638129fc1c1461006f578063a777d0dc14610079578063e904b47d14610095575b600080fd5b6100596100c5565b604051610066919061089c565b60405180910390f35b610077610216565b005b610093600480360381019061008e91906106d4565b610256565b005b6100af60048036038101906100aa91906106ab565b610412565b6040516100bc9190610925565b60405180910390f35b60606001805480602002602001604051908101604052809291908181526020016000905b8282101561020d57838290600052602060002090600302016040518060600160405290816000820160009054906101000a900473ffffffffffffffffffffffffffffffffffffffff1673ffffffffffffffffffffffffffffffffffffffff1673ffffffffffffffffffffffffffffffffffffffff16815260200160018201805461017290610b00565b80601f016020809104026020016040519081016040528092919081815260200182805461019e90610b00565b80156101eb5780601f106101c0576101008083540402835291602001916101eb565b820191906000526020600020905b8154815290600101906020018083116101ce57829003601f168201915b50505050508152602001600282015481525050815260200190600101906100e9565b50505050905090565b6102546040518060400160405280600481526020017f696e69740000000000000000000000000000000000000000000000000000000081525061042a565b565b42600260003373ffffffffffffffffffffffffffffffffffffffff1673ffffffffffffffffffffffffffffffffffffffff1681526020019081526020016000208190555060016000808282546102ac9190610a2c565b925050819055506102f36040518060400160405280601681526020017f25732068656c6c6f20772f206d6573736167652025730000000000000000000081525033836104c3565b600160405180606001604052803373ffffffffffffffffffffffffffffffffffffffff16815260200183815260200142815250908060018154018082558091505060019003906000526020600020906003020160009091909190915060008201518160000160006101000a81548173ffffffffffffffffffffffffffffffffffffffff021916908373ffffffffffffffffffffffffffffffffffffffff16021790555060208201518160010190805190602001906103b292919061058b565b506040820151816002015550503373ffffffffffffffffffffffffffffffffffffffff167f0299c5095ffb09a84aa43a37f6a4992c4824acccb00ea142553e3afed2dbe1b24283604051610407929190610940565b60405180910390a250565b60026020528060005260406000206000915090505481565b6104c08160405160240161043e91906108be565b6040516020818303038152906040527f41304fac000000000000000000000000000000000000000000000000000000007bffffffffffffffffffffffffffffffffffffffffffffffffffffffff19166020820180517bffffffffffffffffffffffffffffffffffffffffffffffffffffffff8381831617835250505050610562565b50565b61055d8383836040516024016104db939291906108e0565b6040516020818303038152906040527fe0e9ad4f000000000000000000000000000000000000000000000000000000007bffffffffffffffffffffffffffffffffffffffffffffffffffffffff19166020820180517bffffffffffffffffffffffffffffffffffffffffffffffffffffffff8381831617835250505050610562565b505050565b60008151905060006a636f6e736f6c652e6c6f679050602083016000808483855afa5050505050565b82805461059790610b00565b90600052602060002090601f0160209004810192826105b95760008555610600565b82601f106105d257805160ff1916838001178555610600565b82800160010185558215610600579182015b828111156105ff5782518255916020019190600101906105e4565b5b50905061060d9190610611565b5090565b5b8082111561062a576000816000905550600101610612565b5090565b600061064161063c84610995565b610970565b90508281526020810184848401111561065957600080fd5b610664848285610abe565b509392505050565b60008135905061067b81610c01565b92915050565b600082601f83011261069257600080fd5b81356106a284826020860161062e565b91505092915050565b6000602082840312156106bd57600080fd5b60006106cb8482850161066c565b91505092915050565b6000602082840312156106e657600080fd5b600082013567ffffffffffffffff81111561070057600080fd5b61070c84828501610681565b91505092915050565b6000610721838361082e565b905092915050565b61073281610a82565b82525050565b61074181610a82565b82525050565b6000610752826109d6565b61075c81856109f9565b93508360208202850161076e856109c6565b8060005b858110156107aa578484038952815161078b8582610715565b9450610796836109ec565b925060208a01995050600181019050610772565b50829750879550505050505092915050565b60006107c7826109e1565b6107d18185610a0a565b93506107e1818560208601610acd565b6107ea81610bf0565b840191505092915050565b6000610800826109e1565b61080a8185610a1b565b935061081a818560208601610acd565b61082381610bf0565b840191505092915050565b60006060830160008301516108466000860182610729565b506020830151848203602086015261085e82826107bc565b9150506040830151610873604086018261087e565b508091505092915050565b61088781610ab4565b82525050565b61089681610ab4565b82525050565b600060208201905081810360008301526108b68184610747565b905092915050565b600060208201905081810360008301526108d881846107f5565b905092915050565b600060608201905081810360008301526108fa81866107f5565b90506109096020830185610738565b818103604083015261091b81846107f5565b9050949350505050565b600060208201905061093a600083018461088d565b92915050565b6000604082019050610955600083018561088d565b818103602083015261096781846107f5565b90509392505050565b600061097a61098b565b90506109868282610b32565b919050565b6000604051905090565b600067ffffffffffffffff8211156109b0576109af610bc1565b5b6109b982610bf0565b9050602081019050919050565b6000819050602082019050919050565b600081519050919050565b600081519050919050565b6000602082019050919050565b600082825260208201905092915050565b600082825260208201905092915050565b600082825260208201905092915050565b6000610a3782610ab4565b9150610a4283610ab4565b9250827fffffffffffffffffffffffffffffffffffffffffffffffffffffffffffffffff03821115610a7757610a76610b63565b5b828201905092915050565b6000610a8d82610a94565b9050919050565b600073ffffffffffffffffffffffffffffffffffffffff82169050919050565b6000819050919050565b82818337600083830152505050565b60005b83811015610aeb578082015181840152602081019050610ad0565b83811115610afa576000848401525b50505050565b60006002820490506001821680610b1857607f821691505b60208210811415610b2c57610b2b610b92565b5b50919050565b610b3b82610bf0565b810181811067ffffffffffffffff82111715610b5a57610b59610bc1565b5b80604052505050565b7f4e487b7100000000000000000000000000000000000000000000000000000000600052601160045260246000fd5b7f4e487b7100000000000000000000000000000000000000000000000000000000600052602260045260246000fd5b7f4e487b7100000000000000000000000000000000000000000000000000000000600052604160045260246000fd5b6000601f19601f8301169050919050565b610c0a81610a82565b8114610c1557600080fd5b5056fea264697066735822122021dcab4fe24bce3bab427b77e857fa7d17259a39578f1c3aff1f37649ac1324764736f6c63430008040033",
    "linkReferences": {},
    "deployedLinkReferences": {}
}